:020000040800F2
:1080000070040020DD810008DF8D0008338D00083A
:10801000DD8D0008E98200081990000800000000CA
:10802000000000000000000000000000E38D0008D8
:10803000EB82000800000000E18D0008E58D0008DB
:10804000F7810008F7810008F7810008F781000830
:10805000F7810008F7810008F7810008F781000820
:10806000F7810008F7810008F7810008F781000810
:10807000F7810008F7810008F7810008F781000800
:10808000F7810008F7810008F7810008F7810008F0
:10809000F7810008F7810008F7810008F7810008E0
:1080A000F7810008F7810008F7810008F7810008D0
:1080B000F7810008F7810008F7810008F7810008C0
:1080C000F7810008F7810008F7810008F7810008B0
:1080D000F7810008F7810008F7810008F7810008A0
:1080E000ED820008F7810008F7810008F781000899
:1080F000F7810008F7810008F7810008F781000880
:10810000F7810008F7810008F7810008F78100086F
:10811000F7810008F7810008F7810008F78100085F
:10812000F7810008F7810008F7810008F78100084F
:10813000F78100080000000000000000F78100083F
:10814000F7810008F7810008F7810008F78100082F
:10815000F7810008F7810008F7810008F78100081F
:10816000F7810008F7810008F7810008F78100080F
:10817000F7810008F7810008F7810008000000007F
:1081800000000000F781000800000000000000006F
:10819000F78100080000000000000000F7810008DF
:1081A000000000000000000000000000F78100084F
:1081B000F7810008F7810008F7810008F7810008BF
:1081C000F7810008DFF810D000F07CF80048004785
:1081D00059900008AFF300807004002006488047E3
:1081E00006480047FEE7FEE7FEE7FEE7FEE7FEE79C
:1081F000FEE7FEE7FEE7FEE7718E0008C581000896
:108200002DE9F05F0546002092469B4688460646CB
:10821000814640241BE0284641464746224600F05E
:1082200041F853465A46C01A914110D31146184698
:10823000224600F028F82D1A67EB01084F46224627
:108240000120002100F01FF817EB00094E41201E0D
:10825000A4F10104DFDC484631462A464346BDE826
:10826000F09FD2B201E000F8012B491EFBD270470B
:108270000022F6E710B513460A4604461946FFF7F2
:10828000F0FF204610BD202A04DB203A00FA02F15C
:10829000002070479140C2F1200320FA03F31943F4
:1082A00090407047202A04DB203A21FA02F0002196
:1082B000704721FA02F3D040C2F1200291400843F6
:1082C00019467047064C074D06E0E06840F0010390
:1082D00094E8070098471034AC42F6D3FFF776FFD6
:1082E000CC900008EC900008FEE7704710B50B4CEE
:1082F000207870B100222021094800F0F5F820789C
:1083000048B100202070BDE810404FF4005000F04C
:108310000BB80122EFE70120F4E700001E00002067
:108320000000024070470000044910B50A6802428C
:1083300002D00860FFF7F6FF10BD0000143C0140BA
:108340002DE9F84F00224FF0010803254FF00F0EE2
:108350000B6808FA02F42340A3426ED14E68012E46
:1083600005D0022E03D0112E01D0122E12D1866814
:108370004FEA420C05FA0CF7BE43CF6807FA0CF738
:10838000374387604668A6430C79C4F300149440D1
:1083900034434460C668570005FA07FC8C6826EA37
:1083A0000C06BC403443C4604C68022C01D0122C33
:1083B00013D1D40800EB8404A346D4F820905407CA
:1083C0004FEAD46A0EFA0AF629EA06090E6906FA95
:1083D0000AF646EA0906CBF8206006680C7926EA18
:1083E0000C0604F00304BC40344304604C68E40011
:1083F00060D5334C266846F480462660246822F017
:10840000030604F4804400942E4C3444A446D4F86B
:1084100008489607370F0EFA07F6B4432A4EB042C3
:1084200001D100261FE0294EB04201D101261AE0F9
:10843000274EB04202D1022615E03BE0254EB04265
:1084400001D103260FE0244EB04201D104260AE0F8
:10845000224EB04201D1052605E0214EB04201D1A5
:10846000062600E00726BE402643CCF808681D4ECD
:1084700034684F689C43FF0300D51C433460194E99
:10848000361D34684F689C43BF0300D51C433460DD
:10849000144E083634684F689C43FF0200D51C43D5
:1084A0003460104E0C3634684F689C43BF0200D5D0
:1084B0001C433460521C102AFFF44AAFBDE8F88F09
:1084C00044380240003001400000024000040240F5
:1084D00000080240000C024000100240001402405C
:1084E00000180240003C01400AB181617047090454
:1084F000FBE7000001488068704700002000002072
:108500000248816802781144816070472000002091
:108510000B4810B5016841F400710160016841F435
:1085200080610160016841F480710160032000F006
:1085300071F8002000F006F800F024F8002010BDCB
:10854000003C024070B50D4D04464FF47A71287816
:10855000B1FBF0F00A490968B1FBF0F000F012FB42
:1085600048B9102C07D200222146501E00F032F8E4
:1085700000206C6070BD012070BD00002000002054
:108580002C0000200B4882B0016841F4804101605A
:10859000006800F4804000900648001F016841F028
:1085A00080510160006800F080500090072002B008
:1085B00000F030B844380240002809DB00F01F0208
:1085C000012191404009800000F1E020C0F8001135
:1085D00070470000F0B40E4B1B680C46C3F3022337
:1085E000C3F10705042D00D90425191D072901D25F
:1085F000002300E0DB1E012606FA05F1491E21409A
:1086000099409E40761E16403143F0BC00F005BDF7
:108610000CED00E0064900F0070208684FF6FF0382
:10862000184040EA0220034A1043086070470000E7
:108630000CED00E00000FA052DE9F0470E460500BC
:1086400065D0DFF81481D8F80000F7B200F00F0011
:10865000B04207D288F80070D8F8000000F00F0090
:10866000B04254D128683D4C810712D5400703D54C
:10867000206840F4E05020602878000703D5206887
:1086800040F4604020602068A96820F0F0000843B2
:1086900020602878C0072DD0304968680839012843
:1086A00012D0022813D0032811D0096889070029A5
:1086B0002DDA216821F0030101432160FFF71AFF41
:1086C000814641F2883A0EE009688903EFE70968BC
:1086D0008901ECE7FFF70EFFA0EB0901514502D934
:1086E0000320BDE8F0872068696800F00C00B0EB5B
:1086F000810FEFD1D8F80010404601F00F01B142D0
:1087000007D90770006800F00F00B04201D00120C7
:10871000E7E72878400705D52068E96820F4E050AD
:10872000084320602878000706D52068296920F4CE
:10873000604040EAC100206000F038F82168084A33
:10874000C1F30311515CC84006490860064800683F
:10875000FFF7F8FE0020C4E7003C02400838024062
:10876000B49000082C000020240000200448054993
:1087700000680968044AC1F38221515CC84070470F
:108780002C00002008380240C49000080448054925
:1087900000680968044AC1F34231515CC84070471F
:1087A0002C00002008380240C4900008224810B570
:1087B000006810F00C02214815D04110042A11D095
:1087C0001D4C241F082A0FD00C2A0CD122682368C4
:1087D00002F03F025B0221D52068C0F38810A0FBA5
:1087E000010120E0084610BD2268236802F03F0224
:1087F0005B0205D52068C0F38810A0FB010104E0EE
:108800002168C1F38811A1FB00010023FFF7F8FCE8
:108810002168C1F30141491C49000AE02168C1F304
:108820008811A1FB00010023FFF7EAFC2168C1F3D6
:108830000271B0FBF1F010BD083802400024F400D2
:108840002DE9F84F0546DFF828B30078ABF10407AF
:10885000C007A7F1040451D0DBF800105846C1F35B
:10886000810101290FD00168C1F38101022902D1E0
:108870003968490207D40068C0F38100032809D190
:108880003868400206D52068800337D5686800281C
:1088900072D033E06868B0F5803F10D0B0F5A02FFB
:1088A000206810D020F480302060206820F48020E0
:1088B00020606868A8B1FFF71DFE06460DE020683D
:1088C00040F48030F4E740F480202060F7E700BFF8
:1088D000FFF710FE801B642878D820688003F7D546
:1088E0000CE0FFF707FE064605E000BFFFF702FEBB
:1088F000801B6428F0D820688003F7D42878DFF83C
:10890000749280074FF0000A46D5DBF800105846F5
:1089100011F00C0F0FD00168C1F38101022902D1BF
:108920003968490207D50068C0F38100032809D1DE
:108930003868400206D42068800715D5E868012809
:108940001AD111E0E868C0B10120C9F80000FFF7B2
:10895000D1FD064605E000BFFFF7CCFD801B0228D5
:10896000BAD820688007F7D52068296920F0F80078
:1089700040EAC10020600FE0F7E0C9F800A0FFF76F
:10898000B9FD064605E000BFFFF7B4FD801B0228D5
:108990001CD820688007F7D42878000727D5DFF88F
:1089A000D0817548696908F16C0881B101210160C5
:1089B000FFF7A0FD064604E0FFF79CFD801B0228A0
:1089C00004D8D8F800008007F6D510E089E0C0F898
:1089D00000A0FFF78FFD064605E000BFFFF78AFD08
:1089E000801B02287DD8D8F800008007F6D42878AC
:1089F000400769D55E484FF0000838300068C00075
:108A00000BD45B483830016841F080510160006848
:108A10004FF0010800F080500090584E3068C005BB
:108A200011D4306840F480703060FFF763FD00902F
:108A300006E000BFFFF75EFD0099401A022850D8FB
:108A40003068C005F6D54A4EA868683601280FD0B0
:108A50000528306810D020F001003060306820F028
:108A600004003060A868B8B1FFF744FD00900FE043
:108A7000306840F00100F4E740F004003060F7E7B0
:108A8000FFF738FD0099411A41F28830814264D8DD
:108A900030688007F4D50EE0FFF72CFD009007E06A
:108AA000FFF728FD0099411A41F28830814254D8DD
:108AB00030688007F4D4B8F1000F05D02C48383066
:108AC000016821F080510160A869A8B3DBF80010AB
:108AD000C1F38101022948D00228C9F860A005D05D
:108AE00000E03AE0FFF706FD054639E0FFF702FD3A
:108AF000064604E0FFF7FEFC801B02282DD8206804
:108B00008001F7D4F5E907010843E9681C4A4908E0
:108B100002EB0141AA6841EA82110843297C40EA3C
:108B20000160297D40EA017038600120C9F86000C9
:108B3000FFF7E0FC054606E015E000BFFFF7DAFCB2
:108B4000401B022809D820688001F7D50BE000BF40
:108B5000FFF7D0FC401B022802D90320BDE8F88FA4
:108B600020688001F4D40020F8E70120F6E7000037
:108B70000838024000004742800E47420070004023
:108B80000000FFFF10B5401EB0F1807F01D301202F
:108B900010BD4FF0E02460610F21601700F03DFA36
:108BA0000020A06107202061002010BD70B50400E6
:108BB00004D094F83900002510B106E0012070BD02
:108BC00084F83850204600F023F8242084F8390037
:108BD0002068C16821F40051C160204600F056F9B8
:108BE0002068016921F4904101612068416921F008
:108BF0002A0141612068C16841F40051C160E56308
:108C0000202084F8390084F83A00002070BD00006C
:108C100010B586B0044614216846FFF729FB1349B6
:108C20002068884220D112480021026842F40032B4
:108C30000260006800F4003005900D4810380268AA
:108C400042F001020260006800F0010005900C2073
:108C500000900220CDE90101032003900720049039
:108C600069460448FFF76CFB06B010BD00440040A5
:108C700040380240000002402DE9F843044690F8D5
:108C800039001F4616460D46202850D1B5B1AEB169
:108C900094F8380001284AD0012084F838004FF0B9
:108CA0000008C4F83C80212084F83900FFF722FC3A
:108CB000A6848146E68484F8388026E00120BDE859
:108CC000F883E08C401EE084A0684B46B0F5805FDE
:108CD0004FF000024FF080012046009703D000F0D3
:108CE00069F9E8B90DE000F065F9C8B9288821688C
:108CF000C0F308004860206908B16D1C05E0AD1C98
:108D000003E0216815F8010B4860E08C0028D8D1F9
:108D10004B46002240212046009700F04BF908B155
:108D20000320CCE7202084F839000020C7E7022088
:108D3000C5E7FEE730B587B014216846FFF798FA1B
:108D400022480024016841F004010160016801F03B
:108D500004010591016841F080010160016801F0A2
:108D600080010591016841F001010160016801F095
:108D700001010591016841F0020101600068144D94
:108D800000F002000590002220212846FFF7ACFBEE
:108D90004FF4005000900F48CDE9010469460E4899
:108DA000FFF7CEFA202000900120CDE901046946AA
:108DB00028460394FFF7C4FA002211462820FFF743
:108DC00009FC2820FFF7F8FB07B030BD303802401F
:108DD000000002400000211000080240FEE770473A
:108DE00070477047FFF78CBB30B593B034216846AD
:108DF000FFF73EFA14210DA8FFF73AFA1A480025AA
:108E0000016841F080510160006800F080501290CC
:108E10001648016821F4404141F480410160006836
:108E2000022400F44040129001200390102000948E
:108E300006940490CDE907504FF4A87009900420DF
:108E4000CDE90A0468460C94FFF7FAFC0DA90F203F
:108E500081E83100E002CDE9100502210DA8FFF7FD
:108E6000EBFB13B030BD0000403802400070004002
:108E70000448016841F470010160024902488039E8
:108E80000860704788ED00E0008000082DE9F0419F
:108E9000044600680169E26821F440511143016110
:108EA0002169A068E26908436169114308432168A8
:108EB000CA6849F20C639A430243CA602068416958
:108EC000A26921F4407111434161E06919276425C9
:108ED0003226B0F5004F354A354920684FF000087A
:108EE00006D0884201D0904236D1FFF74FFC35E0E2
:108EF000884201D0904202D1FFF748FC01E0FFF721
:108F000035FC61684A18A0FB070148EB0803FFF72E
:108F100077F90146B0FBF5F00201B1FBF5F06FF017
:108F20001803584301EB800006EBC000B0FBF5F0DE
:108F300000F0F80002EB4002B1FBF5F0584301EB02
:108F4000800006EBC000B0FBF5F000F007002168E0
:108F500010448860BDE8F081FFF708FC61688B0F62
:108F60008A00A0FB0701FFF74BF90146B0FBF5F0C3
:108F70006FF01802504301EB800006EB0010B0FBCD
:108F8000F5F000F0F002B1FBF5F002EB0012B1FBDE
:108F9000F5F06FF01803584301EB800006EB00106A
:108FA000B0FBF5F000F00F00D1E700000014014025
:108FB000001001402DE9F041984617460E46044640
:108FC000069D1DE0681C1BD02DB1FFF793FAA0EBA6
:108FD0000800A84214D92068C16821F4D071C1608A
:108FE0002068416921F001014161202084F83900A5
:108FF00084F83A00002084F838000320BDE8F081AE
:109000002068006836EA000004D00020B842D9D0B9
:109010000020F3E70120F9E7FEE70907090E002821
:1090200004DB00F1E02080F80014704700F00F002E
:1090300000F1E02080F8141D704702E008C8121FFC
:1090400008C1002AFAD170477047002001E001C131
:10905000121F002AFBD17047FFF75AFAFFF7C4FE30
:10906000FFF768FE114810490C2201604FF4E1310E
:10907000416000218160C160C0E904128161C16169
:10908000FFF794FD4FF0FF3423461E22084907489E
:10909000FFF7F2FDFFF72EFA00F57A75FFF72AFACF
:1090A000A842FBD9F0E70000004400403000002057
:1090B0000000002000000000000000000102030486
:1090C000060708090000000001020304EC900008F4
:1090D00000000020300000003A9000081C910008B9
:1090E00030000020400400004A90000848656C6C85
:1090F0006F2066726F6D2055736572204170706CC1
:1091000069636174696F6E0D0A0000000100000060
:0C91100010000000000000000024F4002B
:04000005080081C5A9
:00000001FF
