:020000040800F2
:1000000088050020DD010008811600087D16000823
:100010007F16000873070008BD18000800000000E4
:10002000000000000000000000000000851600082D
:1000300075070008000000008316000887160008F6
:10004000F7010008F7010008F7010008F7010008B0
:10005000F7010008F7010008F7010008F7010008A0
:10006000F7010008F7010008F7010008F701000890
:10007000F7010008F7010008F7010008F701000880
:10008000F7010008F7010008F7010008F701000870
:10009000F7010008F7010008F7010008F701000860
:1000A000F7010008F7010008F7010008F701000850
:1000B000F7010008F7010008F7010008F701000840
:1000C000F7010008F7010008F7010008F701000830
:1000D000F7010008F7010008F7010008F701000820
:1000E000F7010008F7010008F7010008F701000810
:1000F000F7010008F7010008F7010008F701000800
:10010000F7010008F7010008F7010008F7010008EF
:10011000F7010008F7010008F7010008F7010008DF
:10012000F7010008F7010008F7010008F7010008CF
:10013000F70100080000000000000000F7010008BF
:10014000F7010008F7010008F7010008F7010008AF
:10015000F7010008F7010008F7010008F70100089F
:10016000F7010008F7010008F7010008F70100088F
:10017000F7010008F7010008F7010008000000007F
:1001800000000000F701000800000000000000006F
:10019000F70100080000000000000000F70100085F
:1001A000000000000000000000000000F70100084F
:1001B000F7010008F7010008F7010008F70100083F
:1001C000F7010008DFF810D000F052FA00480047AD
:1001D000652D0008AFF300808805002006488047A1
:1001E00006480047FEE7FEE7FEE7FEE7FEE7FEE71C
:1001F000FEE7FEE7FEE7FEE715170008C501000869
:100200002DE9F05F0546002092469B46884606464B
:10021000814640241BE0284641464746224600F0DE
:100220005EF853465A46C01A914110D311461846FB
:10023000224600F045F82D1A67EB01084F4622468A
:100240000120002100F03CF817EB00094E41201E70
:10025000A4F10104DFDC484631462A464346BDE8A6
:10026000F09FD2B201E000F8012B491EFBD270478B
:100270000022F6E710B513460A4604461946FFF772
:10028000F0FF204610BD421C10F8011B0029FBD1D5
:10029000801A704730B50B46014600202022012409
:1002A00009E021FA02F59D4205D303FA02F5491B44
:1002B00004FA02F52844151EA2F10102F1DC30BD5A
:1002C000202A04DB203A00FA02F100207047914016
:1002D000C2F1200320FA03F3194390407047202A0B
:1002E00004DB203A21FA02F00021704721FA02F3E0
:1002F000D040C2F1200291400843194670472DE9D1
:10030000FE4F804681EA0300C00F0C46009021F0AA
:10031000004123F00045B8EB0200A94105D2404658
:10032000214690461C460B46024623F000401043EF
:1003300047D0270DC7F30A00C3F30A510290401AB1
:10034000019040286BDAC3F3130040F4801B00983F
:10035000924620B10023D2EB030A63EB0B0B01980A
:100360005946C0F140025046FFF7AAFF06460D4627
:1003700050465946019A00F08DF910EB0800614192
:10038000002487EA115284EAE7731A4340D0009AA6
:1003900062B3019A012A4FEA075215DC001B61EB98
:1003A00002014FF0004202EA0752CDE90042001C70
:1003B00041F5801132462B4600F08DF903B0BDE8BF
:1003C000F08F40462146F9E7001B61EB0201001C5B
:1003D00041F5801300185B412018A2F5001747EB88
:1003E000030140EAD570B6196D4111E06D084FEA7E
:1003F000360645EAC0754FEA0752001B61EB020161
:10040000001C41F5801149084FEA300000195141A4
:1004100032462B4603B0BDE8F04F00F04DB90098CE
:10042000012240000023D0EB020263EBE07300984E
:1004300021464FEAE074B8EB000061EB0401E9E704
:1004400083F000435BE781F0004158E72DE9FE4F60
:1004500081EA030404F0004421F0004100944FF0CD
:10046000000B23F0004350EA01045ED052EA03047B
:100470005BD0C3F30A54C1F30A552C44A4F2F334FD
:100480000194A0FB0254C1F3130141F48011C3F3A2
:10049000130343F4801301FB024400FB034E840A60
:1004A000970A44EA815447EA8357A4FB07680295F8
:1004B0008D0A05FB07854FEA932C04FB0C54270596
:1004C000029D4FEA065847EA1637B5EB08056EEB72
:1004D000070C870E920E47EA811742EA8312A7FBA8
:1004E0000201B6EB0B0164EB00042B0D43EA0C3365
:1004F0005E1844EB1C50DA465146E7FB0201C5F397
:1005000013044FEA0B3343EA14534FEA0432019CBD
:1005100043EA0603A4F10C040294009CCDE900B464
:1005200000F0D9F803B0BDE8F08F00200146F9E7EC
:100530002DE9F04D81EA030404F0004B21F0004561
:1005400014464FF0000A23F0004150EA050220D083
:1005500054EA01021DD0C5F30A570246C5F313033E
:10056000C1F31300C1F30A5640F4801543F480131D
:10057000A7EB0608101BD64608F2FD3873EB050002
:1005800002D308F1010801E092185B41B8F1000FB5
:1005900003DA00200146BDE8F08D00204FF4801101
:1005A000064684460EE0171B73EB050705D3121BA6
:1005B00063EB050306434CEA010C49084FEA30009F
:1005C00092185B4150EA0107EDD152EA030012D0C4
:1005D00082EA040083EA0501084305D0101BAB4101
:1005E00006D20122002306E000224FF0004302E081
:1005F0006FF0010253101AEB06004CEB085110EBA0
:100600000A0041EB0B01BDE8F04D00F055B8C1F315
:100610000A52C1F3130140F2FF3341F480119A42B0
:1006200002DA00200146704740F233439A42A2F2B8
:10063000334202DC5242FFF752BEFFF741BE0000D8
:1006400030B5041E71F1000404DB4FF00044404259
:1006500064EB0101141E73F1000405DB1C464FF02E
:100660000043524263EB0403994208BF904230BDFD
:10067000064C074D06E0E06840F0010394E80700EF
:1006800098471034AC42F6D3FFF7A0FD1C2F0008AA
:100690003C2F0008202A06DBCB17203A41FA02F053
:1006A00043EAE07306E041FA02F3D040C2F12002CF
:1006B000914008431946704710B5141E73F10004A9
:1006C00008DA401C41F1000192185B411A4301D144
:1006D00020F0010010BD2DE9F04D92469B4611B16E
:1006E000B1FA81F202E0B0FA80F220329046FFF7D0
:1006F000E7FD04460F4640EA0A0041EA0B01534673
:100700005A46084313D0114653EA010019D0C8F1E4
:1007100040025046FFF7E3FD05460E465046594657
:100720004246FFF7CDFD084305D0012004E02046F6
:100730003946BDE8F08D0020054346EAE0762C43BB
:1007400037430A986305E40AA0EB08000022FD0A7B
:1007500044EA47540A3002D500200146E9E7010582
:1007600010196941DDE9084500196941BDE8F04DFE
:10077000A2E7FEE770470000002229B101291AD044
:1007800002291BD04FF440720E490B6823F44073CA
:100790000B600B6813430B600A6822F0F8020A60D2
:1007A0000A68022303EBC00002430A60086840F4B1
:1007B0008030086070474FF48072E5E74FF40072B4
:1007C000E2E70000103C02401348016889050FD59C
:1007D000016821F400710160016841F40061016069
:1007E000016821F400610160016841F40071016059
:1007F000016849050FD5016821F480610160016835
:1008000041F480510160016821F480510160016868
:1008100041F4806101607047003C024008490A6869
:1008200022F440720A600A6842F004020A600A6810
:100830004FF4803343EA002002430A60704700000F
:10084000103C0240064A136823F440731360136897
:100850001360136843F001031360017070470000D8
:10086000103C0240094910B50C6824F440740C6037
:100870000C6844F440740C600C6844F001040C6093
:100880000260BFF36F8F436010BD0000103C024058
:10089000074A136823F440731360136843F48073AA
:1008A0001360136843F00103136001807047000078
:1008B000103C0240074A136823F440731360136826
:1008C00043F400731360136843F001031360016085
:1008D00070470000103C02401C490868C2061C48D2
:1008E00005D5C26942F01002C26110220A600A688E
:1008F000920605D5C26942F00802C26120220A6050
:100900000A68520605D5C26942F00402C26140225B
:100910000A600A68120605D5C26942F00202C26185
:1009200080220A600A68D20506D5C26942F0010237
:10093000C2614FF480720A600A68920705D5C269E5
:1009400042F02002C2610220086070470C3C024065
:100950006801002070B5114904460020C86100F00C
:10096000FFF906460E4D09E0601C07D024B100F0E7
:10097000F7F9801BA04201D9032070BD2868C0038D
:10098000F2D42868C00701D001202860286810F43C
:10099000F970F2D0FFF7A0FF012070BD68010020C0
:1009A0000C3C024030B502234371002305E000BF38
:1009B000056851F823402C605B1C9342F8D3016812
:1009C000096801224271084630BD10B5040002D00A
:1009D000607910B106E0012010BD00202071204692
:1009E00000F004F801206071002010BD08B5006817
:1009F0000649884208D10648016841F480510160E7
:100A0000006800F48050009008BD000000300240F3
:100A1000303802402DE9F047044622480F46017E57
:100A200001290AD00121804601764CF2503948460E
:100A3000FFF790FF020003D02FE00220BDE8F0870F
:100A40004FF0FF3038602068174D012801D0A668AC
:100A50001CE0207C6168FFF7E1FE4846FFF77AFF63
:100A60000246286820F00400286014E0217C30460B
:100A7000FFF782FE4846FFF76DFF0200286820F06E
:100A8000FA00286001D03E6005E0761CD4E902102F
:100A90000844B042EAD8FFF797FE002188F8181002
:100AA0001046CBE768010020103C02400348016873
:100AB00041F000410160002070470000103C0240FE
:100AC0000348016841F00101016000207047000007
:100AD000143C024006480068C00707D00448054996
:100AE0000C38016004490160002070470120704704
:100AF000143C02403B2A19087F6E5D4C2DE9F047FB
:100B00001B4E05461446307E1F468946012808D0F4
:100B1000012030764CF250384046FFF71BFF18B1E9
:100B200014E00220BDE8F0879DB1012D16D0022D02
:100B300019D022463B464846FFF794FE4046FFF751
:100B400009FF0C490A6822F001020A60002131768F
:100B5000E8E7E1B24846FFF775FEEFE7A1B2484685
:100B6000FFF796FEEAE721464846FFF7A3FEE5E7D2
:100B700068010020103C0240074900200A68002A52
:100B800009DA054A054B0C3A1360054B13600968F6
:100B9000002900DA01207047103C0240230167451C
:100BA000AB89EFCD2DE9F84F00224FF00108032566
:100BB0004FF00F0E0B6808FA02F42340A3426ED1E7
:100BC0004E68012E05D0022E03D0112E01D0122E18
:100BD00012D186684FEA420C05FA0CF7BE43CF6883
:100BE00007FA0CF7374387604668A6430C79C4F3CD
:100BF0000014944034434460C668570005FA07FC6B
:100C00008C6826EA0C06BC403443C4604C68022C55
:100C100001D0122C13D1D40800EB8404A346D4F8DD
:100C2000209054074FEAD46A0EFA0AF629EA060918
:100C30000E6906FA0AF646EA0906CBF8206006684D
:100C40000C7926EA0C0604F00304BC40344304602B
:100C50004C68E40060D5334C266846F48046266034
:100C6000246822F0030604F4804400942E4C34449B
:100C7000A446D4F808489607370F0EFA07F6B4438F
:100C80002A4EB04201D100261FE0294EB04201D1C8
:100C900001261AE0274EB04202D1022615E03BE0C1
:100CA000254EB04201D103260FE0244EB04201D1BF
:100CB00004260AE0224EB04201D1052605E0214E6D
:100CC000B04201D1062600E00726BE402643CCF8FC
:100CD00008681D4E34684F689C43FF0300D51C43D1
:100CE0003460194E361D34684F689C43BF0300D5ED
:100CF0001C433460144E083634684F689C43FF022E
:100D000000D51C433460104E0C3634684F689C4349
:100D1000BF0200D51C433460521C102AFFF44AAFB6
:100D2000BDE8F88F44380240003001400000024026
:100D30000004024000080240000C02400010024083
:100D40000014024000180240003C014000690840C5
:100D500000D0012070470AB1816170470904FBE7A8
:100D60000148806870470000100000200248816838
:100D70000278114481607047100000200B4810B5C4
:100D8000016841F400710160016841F48061016013
:100D9000016841F480710160032000F061F80020D7
:100DA00000F006F800F024F8002010BD003C0240DE
:100DB00070B50D4D04464FF47A712878B1FBF0F010
:100DC0000A490968B1FBF0F000F004FB48B9102CA7
:100DD00007D200222146501E00F022F800206C604D
:100DE00070BD012070BD0000100000201C0000201C
:100DF0000A4808B5016841F480410160006800F4C8
:100E0000804000900548001F016841F0805101605A
:100E1000006800F08050009008BD00004438024097
:100E2000F0B40E4B1B680C46C3F30223C3F1070555
:100E3000042D00D90425191D072901D2002300E043
:100E4000DB1E012606FA05F1491E214099409E400D
:100E5000761E16403143F0BC00F044BD0CED00E0BE
:100E6000064900F0070208684FF6FF03184040EA01
:100E70000220034A10430860704700000CED00E0B8
:100E80000000FA052DE9F0470E46050065D0DFF8B1
:100E90001481D8F80000F7B200F00F00B04207D27A
:100EA00088F80070D8F8000000F00F00B04254D16C
:100EB00028683D4C810712D5400703D5206840F4CF
:100EC000E05020602878000703D5206840F4604097
:100ED00020602068A96820F0F0000843206028788E
:100EE000C0072DD0304968680839012812D002287F
:100EF00013D0032811D00968890700292DDA216849
:100F000021F0030101432160FFF72AFF814641F2EE
:100F1000883A0EE009688903EFE709688901ECE780
:100F2000FFF71EFFA0EB0901514502D90320BDE8E0
:100F3000F0872068696800F00C00B0EB810FEFD1FA
:100F4000D8F80010404601F00F01B14207D90770F0
:100F5000006800F00F00B04201D00120E7E72878D8
:100F6000400705D52068E96820F4E0500843206078
:100F70002878000706D52068296920F4604040EAF7
:100F8000C100206000F038F82168084AC1F303115D
:100F9000515CC8400649086006480068FFF708FF32
:100FA0000020C4E7003C024008380240C02E000880
:100FB0001C0000201400002004480549006809684E
:100FC000044AC1F38221515CC84070471C000020D4
:100FD00008380240D02E0008044805490068096816
:100FE000044AC1F34231515CC84070471C000020E4
:100FF00008380240D02E0008224810B5006810F0D2
:101000000C02214815D02149042A11D01D4C241F5F
:10101000082A0FD00C2A0CD12268236802F03F0264
:101020005B0221D52068C0F38810A0FB010120E0FD
:10103000084610BD2268236802F03F025B0205D516
:101040002068C0F38810A0FB010104E02168C1F30F
:101050008811A1FB00010023FFF7D2F82168C1F33A
:101060000141491C49000AE02168C1F38811A1FB34
:1010700000010023FFF7C4F82168C1F30271B0FB3F
:10108000F1F010BD083802400024F40040787D01E2
:101090002DE9F84F0546DFF828B30078ABF10407D7
:1010A000C007A7F1040451D0DBF800105846C1F383
:1010B000810101290FD00168C1F38101022902D108
:1010C0003968490207D40068C0F38100032809D1B8
:1010D0003868400206D52068800337D56868002844
:1010E00072D033E06868B0F5803F10D0B0F5A02F23
:1010F000206810D020F480302060206820F4802008
:1011000020606868A8B1FFF72BFE06460DE0206856
:1011100040F48030F4E740F480202060F7E700BF1F
:10112000FFF71EFE801B642878D820688003F7D55F
:101130000CE0FFF715FE064605E000BFFFF710FEC6
:10114000801B6428F0D820688003F7D42878DFF863
:10115000749280074FF0000A46D5DBF8001058461D
:1011600011F00C0F0FD00168C1F38101022902D1E7
:101170003968490207D50068C0F38100032809D106
:101180003868400206D42068800715D5E868012831
:101190001AD111E0E868C0B10120C9F80000FFF7DA
:1011A000DFFD064605E000BFFFF7DAFD801B0228E1
:1011B000BAD820688007F7D52068296920F0F800A0
:1011C00040EAC10020600FE0F7E0C9F800A0FFF797
:1011D000C7FD064605E000BFFFF7C2FD801B0228E1
:1011E0001CD820688007F7D42878000727D5DFF8B7
:1011F000D0817548696908F16C0881B101210160ED
:10120000FFF7AEFD064604E0FFF7AAFD801B0228AB
:1012100004D8D8F800008007F6D510E089E0C0F8BF
:1012200000A0FFF79DFD064605E000BFFFF798FD13
:10123000801B02287DD8D8F800008007F6D42878D3
:10124000400769D55E484FF0000838300068C0009C
:101250000BD45B483830016841F080510160006870
:101260004FF0010800F080500090584E3068C005E3
:1012700011D4306840F480703060FFF771FD009049
:1012800006E000BFFFF76CFD0099401A022850D815
:101290003068C005F6D54A4EA868683601280FD0D8
:1012A0000528306810D020F001003060306820F050
:1012B00004003060A868B8B1FFF752FD00900FE05D
:1012C000306840F00100F4E740F004003060F7E7D8
:1012D000FFF746FD0099411A41F28830814264D8F7
:1012E00030688007F4D50EE0FFF73AFD009007E084
:1012F000FFF736FD0099411A41F28830814254D8F7
:1013000030688007F4D4B8F1000F05D02C4838308D
:10131000016821F080510160A869A8B3DBF80010D2
:10132000C1F38101022948D00228C9F860A005D084
:1013300000E03AE0FFF714FD054639E0FFF710FD45
:10134000064604E0FFF70CFD801B02282DD820681C
:101350008001F7D4F5E907010843E9681C4A490808
:1013600002EB0141AA6841EA82110843297C40EA64
:101370000160297D40EA017038600120C9F86000F1
:10138000FFF7EEFC054606E015E000BFFFF7E8FCBE
:10139000401B022809D820688001F7D50BE000BF68
:1013A000FFF7DEFC401B022802D90320BDE8F88FBE
:1013B00020688001F4D40020F8E70120F6E700005F
:1013C0000838024000004742800E4742007000404B
:1013D0000000FFFF10B5401EB0F1807F01D3012057
:1013E00010BD4FF0E02460610F21601700F07AFA21
:1013F0000020A06107202061002010BD70B504000E
:1014000004D094F83900002510B106E0012070BD29
:1014100084F83850204600F023F8242084F839005E
:101420002068C16821F40051C160204600F080F9B5
:101430002068016921F4904101612068416921F02F
:101440002A0141612068C16841F40051C160E5632F
:10145000202084F8390084F83A00002070BD000094
:10146000F0B587B0044614216846FEF701FF214815
:101470001F4F266800221F49103802230324072526
:10148000BE4215D10E6846F400360E60096801F4BC
:1014900000310591016841F0010101600068694671
:1014A00000F0010005900C20CDE90003124818E07F
:1014B000124FBE421AD10E6846F480260E600968AB
:1014C00001F480210591016841F004010160006888
:1014D000694600F0040005904FF44060CDE9000338
:1014E000074802AE86E83400FFF75CFB07B0F0BDAA
:1014F00000440040403802400000024000480040E4
:10150000000802402DE9F843044690F83A00994655
:1015100016460D46202852D1BDB1B6B194F8380018
:1015200001284CD0012084F838000027E7632220EE
:1015300084F83A002C34FFF713FC24F8026B804641
:1015400024F80A6B04F8387931E00120BDE8F8830B
:10155000E08D401EE085A0684346B0F5805F4FF007
:1015600000024FF020012046CDF8009004D000F09A
:1015700073F998B10320E9E700F06EF90028F9D17A
:10158000206900282068406803D0C1B225F8011BFB
:101590000DE0C0F3080125F8021B08E020690028CF
:1015A0002068406801D000F07F0005F8010BE08D55
:1015B0000028CDD1202084F83A000020C6E7022080
:1015C000C4E72DE9F843044690F839001F46164653
:1015D0000D46202850D1B5B1AEB194F8380001289D
:1015E0004AD0012084F838004FF00008C4F83C804D
:1015F000212084F83900FFF7B3FBA6848146E684F6
:1016000084F8388026E00120BDE8F883E08C401E95
:10161000E084A0684B46B0F5805F4FF000024FF0C9
:1016200080012046009703D000F016F9E8B90DE0DC
:1016300000F012F9C8B928882168C0F30800486092
:10164000206908B16D1C05E0AD1C03E0216815F8A8
:10165000010B4860E08C0028D8D14B460022402185
:101660002046009700F0F8F808B10320CCE72020CE
:1016700084F839000020C7E70220C5E7FEE7FEE74F
:10168000704770477047FFF771BB000030B593B0EB
:1016900034216846FEF7ECFD14210DA8FEF7E8FDA5
:1016A0001A480025016841F080510160006800F08F
:1016B000805012901648016821F4404141F4804165
:1016C00001600068022400F4404012900120039061
:1016D0001020009406940490CDE90750C020CDE975
:1016E00009040B9468460C94FFF7D2FC0DA90F2057
:1016F00081E831004FF4A0501090E00211900321D6
:101700000DA8FFF7BFFB13B030BD0000403802400A
:10171000007000400548016841F470010160034910
:101720004FF00060803908607047000088ED00E0ED
:101730002DE9F041044600680169E26821F4405156
:10174000114301612169A068E2690843616911439D
:1017500008432168CA6849F20C639A430243CA608D
:1017600020684169A26921F4407111434161E06937
:10177000192764253226B0F5004F354A35492068CF
:101780004FF0000806D0884201D0904236D1FFF7D2
:1017900023FC35E0884201D0904202D1FFF71CFCC7
:1017A00001E0FFF709FC61684A18A0FB070148EB5C
:1017B0000803FEF725FD0146B0FBF5F00201B1FB81
:1017C000F5F06FF01803584301EB800006EBC00002
:1017D000B0FBF5F000F0F80002EB4002B1FBF5F0D1
:1017E000584301EB800006EBC000B0FBF5F000F0C1
:1017F0000700216810448860BDE8F081FFF7DCFB3A
:1018000061688B0F8A00A0FB0701FEF7F9FC014617
:10181000B0FBF5F06FF01802504301EB800006EBCF
:101820000010B0FBF5F000F0F002B1FBF5F002EBB8
:101830000012B1FBF5F06FF01803584301EB800084
:1018400006EB0010B0FBF5F000F00F00D1E7000050
:1018500000140140001001402DE9F0419846174660
:101860000E460446069D1DE0681C1BD02DB1FFF7F7
:1018700077FAA0EB0800A84214D92068C16821F4C7
:10188000D071C1602068416921F0010141612020CF
:1018900084F8390084F83A00002084F838000320E6
:1018A000BDE8F0812068006836EA000004D000201E
:1018B000B842D9D00020F3E70120F9E7FEE70000A5
:1018C00037B514460846064B6A46214600F0ECF848
:1018D00004466946002000F06AFC20463EBD000038
:1018E000AF2100080907090E002804DB00F1E02001
:1018F00080F80014704700F00F0000F1E02080F83D
:10190000141D704702E008C8121F08C1002AFAD14E
:1019100070477047002001E001C1121F002AFBD16F
:10192000704700002DE9FF5F82B00021DDE904303F
:10193000020DDDF840B0034318D044F61050A2F277
:10194000FF3242431514119801281FD0A5EB0B005C
:10195000401C5FEA000A4FF000064E4FDFF8389156
:10196000B046504615D5CAF1000413E01198012481
:101970004AA3012801D16FEA0B010298119AC0E92C
:101980000031C0E9024206B0BDE8F09FCBF1000093
:10199000DFE704460021404A491842EB0450CDE9F4
:1019A000001012E0E00707D032463B464046494669
:1019B000FEF74CFD8046894632463B4610461946A6
:1019C000FEF744FD06460F466410002CEAD1DDE91F
:1019D0000401DDE90023BAF1000F06DAFEF736FD57
:1019E00042464B46FEF732FD05E0FEF7A1FD4246BA
:1019F0004B46FEF79DFD04460E460022284BFEF79F
:101A00001FFE03D84FF0FF30014607E00022254BB0
:101A100020463146FEF773FCFEF7F9FD102409E07D
:101A2000002C0ADB0A220023FEF7EAFB039B30327C
:101A30001A55641E50EA0102F2D1641C039AC4F1E3
:101A400011031444119A012A03D0012208430DD135
:101A50000AE0084304D000204FF0110B119072E708
:101A6000A3EB0B056D1E0DE05B4504DD4FF000029E
:101A700005F1010504E003DA4FF00002A5F10105CC
:101A8000002AECD002981199C0E90231C0E9004562
:101A900079E70000000014400000F03F3000000033
:101AA0000000F0430000E03F2DE9FF4F95B09A465B
:101AB000884606460025EEE1252877D100242746F2
:101AC000F94A0121039400E0044316F8013F203B4A
:101AD00001FA03F01042F7D130782A2811D06FF0C4
:101AE0002F033078A0F13002092A16D8039A44F067
:101AF000020402EB820203EB42021044761C0390C4
:101B0000EFE758F8042B0392002A03DA504244F41A
:101B10000054039044F00204761C30782E2816D12D
:101B200016F8010F44F004042A280DD06FF02F029C
:101B30003078A0F13003092B09D807EB870302EBBB
:101B40004303C718761CF3E758F8047B761C3078FB
:101B50006C280FD006DC4C2817D068280DD06A28D6
:101B600014D104E0742810D07A280FD10DE044F489
:101B700000140AE044F4801401E044F44014727844
:101B8000824202D104F58014761C761C30786628D7
:101B90000BD013DC582877D009DC002875D04528F5
:101BA000F6D04628F4D047281AD193E118E06328EC
:101BB00035D0642879D0652812D18BE1702873D094
:101BC00008DC6728F1D069286FD06E280DD06F2807
:101BD00006D1ACE073282CD0752874D0782853D067
:101BE0005246179990476D1C54E1C4F302500228E5
:101BF00009D003280DD0D8F8001004280DD00D60AE
:101C000008F1040846E1D8F80010EA17C1E90052CB
:101C1000F6E7D8F800100D80F2E70D70F0E718F83D
:101C2000041B8DF8001000208DF80100EB46012008
:101C300003E058F804BB4FF0FF3061074FF000019C
:101C400002D40DE009F101018946B9420FDA81455C
:101C5000F8DB1BF809100029F4D108E009F10101B3
:101C600089468142FADB1BF809100029F6D1039856
:101C70005346A0EB090721463846179A00F080FA30
:101C8000284400EB090507E044E008E10DE01BF8FB
:101C9000010B524617999047B9F10109F7D2534603
:101CA00021463846179AF2E039E00A21C4F302527D
:101CB0004FF0000B0091022A06D058F8040BC11710
:101CC000032A09D00AE023E008F1070020F0070208
:101CD000F2E80201904605E000B2C117042A01D1E2
:101CE00040B2C117002906DA0A460021404261EBE2
:101CF00002012D2202E0220504D52B228DF80420BA
:101D0000012203E0E20701D02022F7E7914657E0E5
:101D10000A2100E010214FF0000B00910BE0102190
:101D20004FF0000B44F004040827009103E0082062
:101D30004FF0000B0090C4F30252022A05D058F86D
:101D4000040B0021032A08D008E008F1070020F066
:101D50000702F2E80201904603E080B2042A00D1B3
:101D6000C0B24FF0000922072AD53278702A07D076
:101D7000DDF800C08CF0100C5CEA0B0C05D00EE016
:101D800040228DF80420012208E050EA010306D029
:101D900030238DF804308DF8052002229146009BF7
:101DA00083F0080353EA0B030AD150EA010201D180
:101DB000620705D530228DF804204FF001097F1EFF
:101DC0003278582A04D039A20C920CAA02920BE065
:101DD0003BA2F9E75B46009AFEF712FA0C9B9B5C6C
:101DE000029A521E0292137050EA0102F2D1029836
:101DF00004A9081A00F1200B600702D524F48034EE
:101E000000E001275F4502DDA7EB0B0000E00020AA
:101E100000EB0B01009003984944401A0390E00343
:101E200006D453462146179A039800F0A9F90544B1
:101E3000002706E001A85246C05D179990476D1C27
:101E40007F1C4F45F6DBE0030CD553462146179A1D
:101E5000039800F095F9054404E0302052461799A4
:101E600090476D1C0099481E00900029F5DC08E0A1
:101E70000298029952460078491C0291179990479E
:101E80006D1CBBF10001ABF1010BF1DC5BE100F07B
:101E900065F90544761C307800287FF40DAE19B042
:101EA0002846BDE8F08F00000928010030313233A8
:101EB0003435363738396162636465660000000086
:101EC0003031323334353637383941424344454670
:101ED00000000000600700D4062708F1070020F08A
:101EE0000700F0E80223804603F0004C5FEA0C0094
:101EF00001D097A009E0200501D596A005E0E007F4
:101F000001D095A001E0AFF24C001390307823F09F
:101F1000004365280CD006DC452809D046281DD092
:101F200047287FD13BE0662818D067287AD136E071
:101F30000021112F01DB112000E0781CCDE9000108
:101F400004A90CA8FFF7EEFCDDE90D010C9A4FF097
:101F5000000B07F10109109200914EE04FF0004094
:101F60000097CDE9011004A90CA8FFF7DBFCDDE91F
:101F70000D020C9B0F994FF0000B914610930092AD
:101F800011B9791C00EB0109B7EB090003D4C0F1CA
:101F9000FF3B07F10109A9EB0700019042E0012F87
:101FA00000DA01270021112F01DD112000E0384661
:101FB000CDE9000104A90CA8FFF7B4FCDDE90D018F
:101FC0000C9A00914FF0000BB946109221070FD4E4
:101FD000009A4A4503DA914601E0A9F10109B9F1F5
:101FE000010F05DD109AA9F10101515C3029F4D0EF
:101FF000B84202DA10F1040F03DA0121CDE9011031
:1020000010E0002803DC8344A9EB000102E0411C3E
:10201000494500DD8946A0EB0B00401C01904FF0C4
:1020200000400290200705D40198484502DB4FF09C
:10203000FF30019000208DF84B0002980DF14B0706
:10204000B0F1004F25D002200C902B200D9002986B
:1020500000280CDA404202902D200D9007E00A2162
:102060000298FEF717F93031029007F8011D0C991C
:10207000481E0C900029F2DC02980028EFD1791E4E
:102080000D980870307800F0200040F0450007F807
:10209000020D11A8C01BC01D02901398007800B15A
:1020A000012000EB0901019801EBE0710298014465
:1020B0000398401A401E0390E00306D4534621467D
:1020C000179A039800F05CF805441398007818B14B
:1020D0005246179990476D1CE00323D5534621467D
:1020E000179A039800F04CF805441BE0BBF1000F71
:1020F00007DB0098584504DD1098179910F80B007D
:1021000001E0179930205246904701980BF1010BDE
:10211000401E05F10105019004D12E205246179969
:1021200090476D1CB9F10001A9F10109DEDC05E061
:1021300017F8010B5246179990476D1C0299481EDB
:1021400002900029F4DC53462146179A03989EE634
:102150002D0000002B000000200000002DE9F041C0
:10216000044600251E461746880404D405E0394677
:102170002020B0476D1C641EF9D52846BDE8F081CB
:102180002DE9F041044600251E469046C80301D5BE
:10219000302700E02027880404D505E04146384672
:1021A000B0476D1C641EF9D52846BDE8F0810A6869
:1021B000531C0B601070704738B5044600208DF832
:1021C000000015A000F04EFE2178491C6018091F80
:1021D00050F8042C204600F005FD28B11CA000F0AA
:1021E00041FE00F0A7FC38BD21A000F03BFE2078A6
:1021F000012100F08FFCE178A078002200F00CFDB6
:102200008DF80000014623A000F02CFE0121684655
:1022100000F0DEFC38BD0000424C5F4445425547AB
:102220005F4D53473A20426F6F746C6F6164657203
:102230002068616E646C6520454E44495352575086
:10224000524F5445435420636F6D6D616E640A00B4
:10225000424C5F44454255475F4D53473A206368BF
:1022600065636B73756D206661696C2021210A00BE
:10227000424C5F44454255475F4D53473A2063689F
:1022800065636B73756D207375636365737320216C
:10229000210A0000424C5F44454255475F4D534779
:1022A0003A20666C6173682065726173652073748F
:1022B000617475733A202523780A000038B5044606
:1022C00000208DF800001DA000F0CCFD2178491CF5
:1022D0006018091F50F8042C204600F083FC28B138
:1022E00023A000F0BFFD00F025FC38BD28A000F0C1
:1022F000B9FD2078012100F00DFCE278A1782DA035
:1023000000F0B0FD394D012220212846FEF723FDC3
:10231000E178A07800F0D4FC8DF8000000222021A4
:102320002846FEF718FD9DF8001031A000F09AFD38
:102330000121684600F04CFC38BD0000424C5F446F
:10234000454255475F4D53473A20426F6F746C6F5B
:10235000616465722068616E646C6520464C41530F
:1023600048455241534520636F6D6D616E640A00AC
:10237000424C5F44454255475F4D53473A2063689E
:1023800065636B73756D206661696C2021210A009D
:10239000424C5F44454255475F4D53473A2063687E
:1023A00065636B73756D207375636365737320214B
:1023B000210A0000424C5F44454255475F4D534758
:1023C0003A20696E697469616C5F736563746F72DA
:1023D000203A20256420206E6F5F6F6673656374FA
:1023E0006F72733A2025640A00000000000002406A
:1023F000424C5F44454255475F4D53473A20666C17
:10240000617368206572617365207374617475739C
:102410003A202523780A000038B5044615A000F0BC
:1024200021FD0020ADF800002178491C6018091F2B
:1024300050F8042C204600F0D5FB28B119A000F07C
:1024400011FD00F077FB38BD1EA000F00BFD2078D9
:10245000022100F05FFB00F07DFCADF800000246B9
:10246000014621A000F0FEFC0221684600F0B0FB0E
:1024700038BD0000424C5F44454255475F4D5347CD
:102480003A20426F6F746C6F616465722048616EB0
:10249000646C652047455443494420636F6D6D610A
:1024A0006E640A00424C5F44454255475F4D5347B6
:1024B0003A636865636B73756D206661696C202192
:1024C000210A0000424C5F44454255475F4D534747
:1024D0003A636865636B73756D20737563636573C9
:1024E000732021210A000000424C5F4445425547B9
:1024F0005F4D53473A204D4355206964203A2025CB
:1025000064202523782021210A00000010B504460C
:1025100010A000F0A7FC2178491C6018091F50F892
:10252000042C204600F05EFB30B117A000F09AFCAE
:10253000BDE8104000F0FEBA1BA000F093FC20782C
:10254000082100F0E7FABDE8104008211F4800F01C
:102550003FBB0000424C5F44454255475F4D5347E7
:102560003A20426F6F746C6F616465722048616ECF
:10257000646C652047455448454C5020636F6D6D31
:10258000616E640A00000000424C5F4445425547BA
:102590005F4D53473A636865636B73756D20666181
:1025A000696C2021210A0000424C5F444542554796
:1025B0005F4D53473A636865636B73756D20737540
:1025C00063636573732021210A000000000000206E
:1025D00038B5044612A000F045FC2178491C60186B
:1025E000091F50F8042C204600F0FCFA28B118A06E
:1025F00000F038FC00F09EFA38BD1DA000F032FC5F
:102600002078012100F086FA10218DF800100A468A
:1026100020A000F027FC0121684600F0D9FA38BD5F
:10262000424C5F44454255475F4D53473A20426F05
:102630006F746C6F6164652048616E646C652047DF
:10264000455456455220636F6D6D616E640A0000FB
:10265000424C5F44454255475F4D53473A204368DB
:1026600065636B73756D206661696C21210A0000DA
:10267000424C5F44454255475F4D53473A204368BB
:1026800065636B73756D2053756363657373212187
:102690000A000000424C5F44454255475F4D534796
:1026A0003A20424C5F5645523A2025642523780A49
:1026B000000000001CB5044600208DF80000012039
:1026C0008DF804001BA000F0CDFB2178491C601898
:1026D000091F50F8042C204600F084FA28B122A0EB
:1026E00000F0C0FB00F026FA1CBD27A000F0BAFBEA
:1026F0002078012100F00EFAD4F802402BA02146E8
:1027000000F0B0FB204600F0C5FB38B12FA000F070
:10271000A9FB012101A800F05BFA1CBD012168465C
:1027200000F056FA04B9012432A000F09BFBA04748
:102730001CBD0000424C5F44454255475F4D534726
:102740003A20426F6F746C6F616465722068616ECD
:10275000646C6520474F544F4144445220636F6D71
:102760006D616E640A000000424C5F44454255476B
:102770005F4D53473A20636865636B73756D2066E0
:1027800061696C2021210A00424C5F444542554753
:102790005F4D53473A20636865636B73756D2073B3
:1027A0007563636573732021210A0000424C5F4406
:1027B000454255475F4D53473A20474F2061646477
:1027C000726573733A202523780A0000424C5F44F7
:1027D000454255475F4D53473A20474F2061646457
:1027E0007265737320696E76616C69642021200ABA
:1027F00000000000424C5F44454255475F4D53473F
:102800003A204A756D70696E6720746F20676F207B
:102810006164647265737321200A0000F8B5044690
:1028200000208DF80000A679D4F8025021A000F015
:1028300019FB2178491C6018091F50F8042C204608
:1028400000F0D0F928B128A000F00CFB00F072F9DC
:10285000F8BD2DA000F006FB2078012100F05AF908
:10286000294632A000F0FEFA284600F013FB50B1D2
:1028700038A000F0F7FA01208DF800000121684629
:1028800000F0A6F9F8BD3EA000F0ECFA464F012298
:1028900020213846FEF75FFA32462946E01D00F057
:1028A00035FA8DF80000002220213846FEF753FA51
:1028B000E4E70000424C5F44454255475F4D5347B3
:1028C0003A20426F6F746C6F616465722068616E4C
:1028D000646C65204D454D575249544520636F6DDA
:1028E0006D616E640A000000424C5F4445425547EA
:1028F0005F4D53473A20636865636B73756D20665F
:1029000061696C2021210A00424C5F4445425547D1
:102910005F4D53473A20636865636B73756D207331
:102920007563636573732021210A0000424C5F4484
:10293000454255475F4D53473A206D656D2077728C
:102940006974652061646472657373203A2025237D
:10295000780A0000424C5F44454255475F4D53475B
:102960003A20696E76616C6964206D656D207772BE
:1029700069746520616464726573730A0000000005
:10298000424C5F44454255475F4D53473A2076617C
:102990006C6964206D656D2077726974652061646F
:1029A00064726573730A00000000024038B5044683
:1029B00000208DF8000014A000F054FA2178491C82
:1029C0006018091F50F8042C204600F00BF928B1BC
:1029D00019A000F047FA00F0ADF838BD1EA000F0D5
:1029E00041FA2078012100F095F800F0ABF98DF85C
:1029F00000000246014621A000F034FA0121684699
:102A000000F0E6F838BD0000424C5F4445425547AF
:102A10005F4D53473A20426F6F746C6F616465720B
:102A20002048616E646C65204745545244502063D1
:102A30006F6D6D616E640A00424C5F4445425547BC
:102A40005F4D53473A636865636B73756D206661CC
:102A5000696C2021210A0000424C5F4445425547E1
:102A60005F4D53473A636865636B73756D2073758B
:102A700063636573732021210A000000424C5F44A8
:102A8000454255475F4D53473A20524450204C65CC
:102A900076656C203A202564202523782021210AA0
:102AA0000000000010B508A000F0DCF90020D0F80C
:102AB00002400FA0214600F0D5F984F3088814489D
:102AC0004068BDE810400047424C5F4445425547CE
:102AD0005F4D53473A204A756D7020746F207573AF
:102AE0006572206170706C69636174696F6E0A0051
:102AF000424C5F44454255475F4D53473A204D5342
:102B0000502056616C75653A202523780A00000034
:102B10000080000808B5A5208DF800008DF8011090
:102B20004FF0FF33022269460148FEF74AFD08BD17
:102B3000E800002008B57F208DF800004FF0FF333B
:102B4000012269460148FEF73CFD08BDE80000206F
:102B50001E4C4FF0FF35C8211C48FDF789FB1B496F
:102B60002B46012201F1C800FEF7CCFC1748227861
:102B70002B46611CC830FEF7C5FC60785138082828
:102B8000E9D2DFE800F004080C1014181B1F0F48EE
:102B9000FFF71EFDDFE70D48FFF7B8FCDBE70B484A
:102BA000FFF73AFCD7E70948FFF700FFD3E70748EC
:102BB000FFF780FDCFE70548FFF780FB0348FFF7ED
:102BC0002DFEC8E70148FFF7F7FAC4E72000002010
:102BD0008AB201464FF0FF330148FEF7F2BC000015
:102BE000E8000020F8B50746FF2016460D460024F1
:102BF00007E0385D0090012269460648FDF7D2FEE5
:102C0000641CAC42F5D3B04201D10020F8BD0120D4
:102C1000F8BD00000800002070B5284D274C06467E
:102C2000083DB2B1FDF756FF2868C003FCD4206808
:102C300020F000402060206840F47F002060206881
:102C400040F0020020602868C003FCD4FDF738FF84
:102C500003E0012903D0022916D0002070BDFDF742
:102C600039FF2868C003FCD4206820F000402060B1
:102C7000206820EA06402060206840F002002060C2
:102C80002868C003FCD4E1E7FDF724FF2868C003EF
:102C9000FCD4206840F000402060206820F47F00D1
:102CA0002060206840EA06402060206840F0020072
:102CB00020602868C003FCD4C8E70000143C024030
:102CC00010B586B008291FD80123FF281AD007287D
:102CD0001AD8C0F10802D2B2914200D9114600229E
:102CE0000092CDE902010193FDF746FF0220049016
:102CF00005A96846FDF78EFE0446FDF7D7FE20467F
:102D000006B010BD0093EEE70420F9E72DE9F0418D
:102D1000164688460025FDF72FFF0024084F08E0DF
:102D200000233A5D08EB04011846FDF7E7FE05466F
:102D3000641CB442F4D3FDF7B9FE2846BDE8F08127
:102D40002000002002480068C0F307207047000000
:102D500000C0FF1F02480068C0F30B00704700006E
:102D6000002004E0F8B5FEF709F8FEF78FFC2748CD
:102D70000024016841F004010160016801F00401D0
:102D80000091016841F080010160016801F080015B
:102D90000091016841F00101016000681D4900F0E7
:102DA000010000901A4808600846FDF70EFE1B4817
:102DB00019494FF4E1350160C0E901540C26C460A3
:102DC000C0E904468461C461FEF718FB1348144946
:102DD00040300160C0E90154C460C0E90446846128
:102DE000C461FEF70BFB4FF400510E48FDF7AEFF38
:102DF00030B10D4800F036F8FFF754FE0020F8BD62
:102E00000AA000F02FF8FFF7A3FE000030380240C0
:102E1000003002400800002000440040E80000208C
:102E20000048004000080240D82E0008424C5F4491
:102E3000454255475F4D53473A20427574746F6E53
:102E400020697320707265737365642E2E2E20477F
:102E50006F696E6720746F20424C204D6F64650A65
:102E60000D0000000FB400B595B017AA684616997A
:102E7000FEF726FD6846FDF706FA82B24FF0FF33F3
:102E800069460348FEF79DFB15B05DF814FB000092
:102E900028010020A0F10051B1F5003F09D9A0F1AF
:102EA0000061B1F5002F04D304490844B0F5805FF8
:102EB00001D80020704701207047000000C0FDBF0E
:102EC00000000000000000000102030406070809DA
:102ED0000000000001020304424C5F444542554794
:102EE0005F4D53473A20427574746F6E20697320AA
:102EF0006E6F7420707265737365642E2E2E20457C
:102F00007865637574696E672075736572204170AA
:102F1000706C69636174696F6E0A0D003C2F000864
:102F20000000002020000000041900085C2F0008A9
:102F30002000002068050000141900085152535465
:102F40005556575A00000000000000000100000024
:0C2F500010000000000000000024F4004D
:04000005080001C529
:00000001FF
